:100000000C944A000C9467000C9467000C946700F1
:100010000C9467000C9467000C9467000C946700C4
:100020000C9467000C9467000C9467000C946700B4
:100030000C9467000C9467000C9467000C946700A4
:100040000C9467000C9467000C9467000C94670094
:100050000C9467000C9467000C9467000C94670084
:100060000C9467000C9467000C9467000C94670074
:100070000C9467000C9467000C9467000C94670064
:100080000C9467000C9467000C9467000C94670054
:100090000C94670011241FBECFEFD8E0DEBFCDBFA8
:1000A00011E0A0E0B1E0E4E1FEE002C005900D92B5
:1000B000A030B107D9F721E0A0E0B1E001C01D9266
:1000C000A135B207E1F70E94D2040C9408070C9402
:1000D0000000CF92DF92EF92FF920F931F93CF9386
:1000E000DF93CDB7DEB728970FB6F894DEBF0FBE0B
:1000F000CDBF88E98093EF0088E08093ED008E010A
:100100000F5F1F4FF80180E02DEE30E04AEF50E026
:10011000982F97709860D9019C93DA019C919193E4
:100120008F5F8830A9F76981609342018A8180934B
:100130005001DB80D0921901CC80C0923E01FD803D
:10014000F0924801EE80E09200019F819093290196
:10015000988590932D0170E0762F6627680F711DAA
:10016000072E000C880B990B0E94000620E030E05F
:1001700048EC5EE30E948C060E94CF05709332012A
:10018000609331019B01ADECBCEC0E94F9069695A1
:100190008795969587959695879590933D01809341
:1001A0003C0180933001909340016D2D70E0762FDB
:1001B00066276C0D711D072E000C880B990B0E9491
:1001C000000621E030E84CEA5BE30E948C060E94C6
:1001D000CF0570934A01609349016F2D70E0762F2F
:1001E00066276E0D711D072E000C880B990B0E945F
:1001F000000620E030E048EC5AE30E948C060E94A2
:10020000CF05609336011092EE0088E98093EF00ED
:10021000EAEDF0E08081808388E18093ED00F801D1
:1002200080E02DEE30E04AEF50E0982F9770986113
:10023000D9019C93DA019C9191938F5F8830A9F743
:100240006B8160933A018C8180933701FD80F0923D
:100250001701EE80E0922C0170E0762F6627680F80
:10026000711D072E000C880B990B0E9400062CE0D4
:1002700030E04AE75BE30E948C060E94CF05709352
:100280004F0160934E016F2D70E0762F66276E0D43
:10029000711D072E000C880B990B0E94000621E0AF
:1002A00030E84CEA5BE30E948C060E94CF05709315
:1002B0001D0160931C011092EE0088E98093EF000D
:1002C000EAEDF0E08081808388E28093ED00F80120
:1002D00080E02DEE30E04AEF50E0982F9770986262
:1002E000D9019C93DA019C9191938F5F8830A9F793
:1002F0006B8160934C018C818093350170E0762F87
:100300006627680F711D072E000C880B990B0E9441
:10031000000623E333E343EA58E30E948C060E947D
:10032000CF0570932B0160932A011092EE0088E9AB
:100330008093EF00EAEDF0E08081808388E3809392
:10034000ED0080E0ADEEB0E02AEF30E0982F97703E
:1003500098639C93F9019081F80191938F018F5FCD
:100360008830A1F7698170E080E090E00E9400068B
:1003700020E030E040E85BE30E948C0620E030E0C3
:1003800040E05FE30E94630520E030E043E153E496
:100390000E948C060E94CF05609312016B816093CE
:1003A0004B018C81809318019D8190930B011F81DB
:1003B00010934601088500930A0170E0762F6627A6
:1003C000680F711D072E000C880B990B0E94000608
:1003D00020E030E040E85BE30E948C060E94CF05FD
:1003E0007093450160934401612F70E0762F66277A
:1003F000600F711D072E000C880B990B0E940006E0
:1004000024E736EB40E859E30E948C060E94CF05B2
:1004100070931B0160931A011092EE0088E980939B
:10042000EF00EAEDF0E08081808328960FB6F89423
:10043000DEBF0FBECDBFDF91CF911F910F91FF9017
:10044000EF90DF90CF9008952F923F924F925F925E
:100450006F927F928F929F92AF92BF92CF92DF92D4
:10046000EF92FF920F931F93CF93DF930F2EFDEE2A
:10047000CF2ED12CF02D6894442443F8F60140820D
:100480000F2EF3EFEF2EF12CF02D0F2EFFE06F2E3D
:10049000F02DF701608202EF10E00F2EF5E87F2EBD
:1004A000F02DF801708261EF70E0FB01108240EFE7
:1004B00050E0FA01108227EF30E099249A94F90174
:1004C000908286EF90E0FC019082C5EFD0E09882A8
:1004D000A4EFB0E09C920F2EFFEEAF2EB12CF02DCA
:1004E0000F2EF8E98F2EF02DF50180820F2EF8E106
:1004F0005F2EF02DF60150820F2EFEEE2F2E312CA6
:10050000F02DF1011082F7016082F8017082FB0189
:100510001082FA014082F9019082FC019082988257
:100520009C92F50180820F2EF8E24F2EF02DF601FD
:100530004082F1011082F7016082F8017082FB01B4
:1005400010826894442444F8FA014082F9019082B0
:10055000FC01908298829C92F50180820F2EF8E334
:100560004F2EF02DF6014082F1011082F7016082DA
:10057000F8017082FB011082FA015082F901908229
:10058000FC01908298829C92F50180820F2EF8E403
:100590008F2EF02DF6018082F10110820F2EF4E1F2
:1005A000DF2EF02DF701D082F8011082FB011082BE
:1005B000FA011082F9019082FC01908298829C924B
:1005C000F101108288E5F5018083EAEDF0E0808199
:1005D0008083DF91CF911F910F91FF90EF90DF907B
:1005E000CF90BF90AF909F908F907F906F905F90D3
:1005F0004F903F902F9008954F925F927F928F92ED
:100600009F92AF92BF92CF92DF92EF92FF920F93A1
:100610001F93CF93DF93712C0F2EFDEECF2ED12C95
:10062000F02D0F2EFEEEEF2EF12CF02D03EF10E04B
:1006300062EF70E041EF50E020EF30E0C7EFD0E034
:100640000F2EF6EF4F2E512CF02D0F2EF5EFAF2E73
:10065000B12CF02D0F2EF4EF8F2E912CF02DEAEF10
:10066000F0E0872D8295807FD6018C93D7011C9274
:10067000D8011C92DB011C92DA011C92D9011C9258
:100680001882D2011C92D5011C92D4011C9288E0E0
:1006900090E010820197E9F77394BFE07B12E1CFFD
:1006A00082E08093D80083E08093DC001092DE002B
:1006B0001092DF001092DB0086E08093E20084E07D
:1006C0008093E30082E18093E4001092E5000E94B1
:1006D0002402DF91CF911F910F91FF90EF90DF9057
:1006E000CF90BF90AF909F908F907F905F904F90F2
:1006F0000895EF92FF920F931F93CF93DF9388E4B7
:100700008093ED0080E0EDEEF0E0AAEFB0E0982FEE
:10071000977098679083811104C0909140019C93D9
:100720000DC0813021F4909130019C930EC0823035
:1007300029F490912D019C5E9C930BC0833029F489
:10074000909129019C5E9C9308C0843011F41C9206
:1007500009C0853011F41C920AC0863019F41C922D
:100760008F5FD5CF873019F41092FA0003C08F5FE6
:10077000883069F685E08093F3001092F2001092C1
:10078000F1001092F0008FEF8093F7008093F60055
:100790008093F5008093F4001092EE0088E480933B
:1007A000EF00EAEDF0E0908190838093ED00C0E2ED
:1007B000D1E080E00DEE10E0AAEFB0E06EEE70E068
:1007C0004FEE50E028E80F2EFAEDEF2EF12CF02D31
:1007D000982F97709864F80190839C919993FB01EE
:1007E0001082FA012083F70190819083EFE9FFE006
:1007F0003197F1F700C000001C928F5F883041F7FD
:10080000DF91CF911F910F91FF90EF900895EF929C
:10081000FF920F931F93CF93DF9388E48093ED00B3
:1008200080E0EDEEF0E0AAEFB0E0982F97709867C7
:100830009083811102C01C9208C0813011F41C9277
:1008400008C0823011F41C9208C0833011F41C924D
:1008500008C0843011F41C920CC0853011F41C9235
:100860000DC0863031F490910B019E5F9C938F5F99
:10087000DCCF873019F41092FA0003C08F5F883004
:10088000A1F685E08093F30080E28093F20010925D
:10089000F1001092F0008FEF8093F7008093F60044
:1008A0008093F5008093F4001092EE0088E480932A
:1008B000EF00EAEDF0E0908190838093ED00C0E2DC
:1008C000D1E080E00DEE10E0AAEFB0E06EEE70E057
:1008D0004FEE50E028E80F2EFAEDEF2EF12CF02D20
:1008E000982F97709864F80190839C919993FB01DD
:1008F0001082FA012083F70190819083EFE9FFE0F5
:100900003197F1F700C000001C928F5F883041F7EB
:10091000DF91CF911F910F91FF90EF900895E9EC37
:10092000F0E0808188608083808180618083EAEC50
:10093000F0E080818F7B808380818F7D80838081C8
:100940008F7E808380818F7B808380818B7F80837B
:1009500080818460808380818260808387E6809349
:10096000CC001092CD000895E8ECF0E0908195FF66
:10097000FDCF8093CE0008958F708A3020F4805D83
:100980000E94B4040895895C0E94B4040895CF9332
:10099000C82F82958F700E94BC048C2F0E94BC04CB
:1009A000CF910895559A5698999AA19A0E94FC025F
:1009B0000E948F042FEF89E698E1215080409040FB
:1009C000E1F700C000000AE211E0C9E4D1E0809143
:1009D0004D01863E11F410924D0180914D018F5FC3
:1009E00080934D010E9469000E9479030E940704D0
:1009F0008FEA0E94C704809142010E94C70484E7E5
:100A00000E94B404809150010E94C70484E70E94B0
:100A1000B404809148010E94C70484E70E94B40492
:100A2000809100010E94C70484E70E94B404809171
:100A30002D010E94C70484E70E94B404809129011B
:100A40000E94C70484E70E94B40480910B010E94B5
:100A5000C70484E70E94B404809117010E94C70470
:100A600084E70E94B40480912C010E94C70484E7AB
:100A70000E94B40480914D010E94C70484E70E9443
:100A8000B404F80180810E94C70484E70E94B40482
:100A900088810E94C70484E70E94B40480911201F7
:100AA0000E94C70484E70E94B4048AE00E94B40450
:100AB000FFEF29EF80E0F15020408040E1F700C0D7
:100AC000000085CF5058BB27AA270E947A050C94B6
:100AD00052060E94440638F00E944B0620F039F47A
:100AE0009F3F19F426F40C9441060EF4E095E7FBC1
:100AF0000C943B06E92F0E94630658F3BA1762076D
:100B000073078407950720F079F4A6F50C94850601
:100B10000EF4E0950B2EBA2FA02D0B01B901900118
:100B20000C01CA01A0011124FF27591B99F0593F5C
:100B300050F4503E68F11A16F040A22F232F342FA4
:100B40004427585FF3CF469537952795A795F040F2
:100B50005395C9F77EF41F16BA0B620B730B840B07
:100B6000BAF09150A1F0FF0FBB1F661F771F881FBF
:100B7000C2F70EC0BA0F621F731F841F48F4879517
:100B800077956795B795F7959E3F08F0B0CF939509
:100B9000880F08F09927EE0F9795879508950E9482
:100BA0006B0688F09F5798F0B92F9927B751B0F08E
:100BB000E1F0660F771F881F991F1AF0BA95C9F7E1
:100BC00014C0B13091F00E948506B1E008950C94F4
:100BD0008506672F782F8827B85F39F0B93FCCF3A7
:100BE000869577956795B395D9F73EF4909580955E
:100BF000709561957F4F8F4F9F4F0895E89409C07E
:100C000097FB3EF490958095709561957F4F8F4F3F
:100C10009F4F9923A9F0F92F96E9BB279395F69555
:100C2000879577956795B795F111F8CFFAF4BB0FD3
:100C300011F460FF1BC06F5F7F4F8F4F9F4F16C037
:100C4000882311F096E911C0772321F09EE8872FC1
:100C5000762F05C0662371F096E8862F70E060E07D
:100C60002AF09A95660F771F881FDAF7880F9695F6
:100C7000879597F9089597F99F6780E870E060E09D
:100C800008959FEF80EC089500240A941616170625
:100C900018060906089500240A941216130614066D
:100CA00005060895092E0394000C11F4882352F0D0
:100CB000BB0F40F4BF2B11F460FF04C06F5F7F4F88
:100CC0008F4F9F4F089557FD9058440F551F59F06F
:100CD0005F3F71F04795880F97FB991F61F09F3F29
:100CE00079F087950895121613061406551FF2CF52
:100CF0004695F1DF08C0161617061806991FF1CFA2
:100D000086957105610508940895E894BB276627C8
:100D10007727CB0197F908950E949F060C945206FD
:100D20000E94440638F00E944B0620F0952311F0F3
:100D30000C943B060C94410611240C9486060E94E8
:100D4000630670F3959FC1F3950F50E0551F629FA6
:100D5000F001729FBB27F00DB11D639FAA27F00D14
:100D6000B11DAA1F649F6627B00DA11D661F829F3B
:100D70002227B00DA11D621F739FB00DA11D621F20
:100D8000839FA00D611D221F749F3327A00D611D3D
:100D9000231F849F600D211D822F762F6A2F11241F
:100DA0009F5750409AF0F1F088234AF0EE0FFF1F52
:100DB000BB1F661F771F881F91505040A9F79E3FA9
:100DC000510580F00C943B060C9486065F3FE4F3DB
:100DD000983ED4F3869577956795B795F795E795FF
:100DE0009F5FC1F7FE2B880F911D9695879597F908
:100DF0000895A29FB001B39FC001A39F700D811DF4
:100E00001124911DB29F700D811D1124911D089513
:040E1000F894FFCF84
:00000001FF
