S0130000617439305F365F322831292E737265632B
S11300000C944A000C945C000C945C000C945C000E
S11300100C945C000C945C000C945C000C945C00EC
S11300200C945C000C945C000C945C000C945C00DC
S11300300C945C000C945C000C945C000C945C00CC
S11300400C945C000C945C000C945C000C945C00BC
S11300500C945C000C945C000C945C000C945C00AC
S11300600C945C000C945C000C945C000C945C009C
S11300700C945C000C945C000C945C000C945C008C
S11300800C945C000C945C000C945C000C945C007C
S11300900C945C0011241FBECFEFD8E0DEBFCDBFAF
S11300A021E0A0E0B1E001C01D92AA30B207E1F75F
S11300B00E94A1000C9464010C940000E9ECF0E0AF
S11300C0808188608083808180618083EAECF0E0B5
S11300D080818F7B808380818F7D808380818F7EF0
S11300E0808380818F7B808380818B7F80838081EC
S11300F08460808380818260808387E68093CC00E3
S11301001092CD000895E8ECF0E0908195FFFDCFCA
S11301108093CE0008958F708A3020F4805D0E9411
S113012083000895895C0E9483000895CF93C82FAB
S113013082958F700E948B008C2F0E948B00CF9130
S11301400895999AA19A0E945E002FEF89E698E19A
S1130150215080409040E1F700C000000F2EFBE4E6
S1130160FF2EF02D04E111E0C0E0D1E08091000108
S1130170909101018A3A910521F4109201011092A3
S1130180000180910201843611F4109202018091E1
S11301900501843611F4F0920501809107018E3136
S11301A011F40093070180910301863011F4109338
S11301B0030180910401883C11F4109204018091A0
S11301C00901863E11F410920901809106018A3FCB
S11301D011F41092060180910001909101010196A1
S11301E09093010180930001909102019F5F90938D
S11301F00201909105019F5F909305019091070181
S11302009F5F90930701909103019F5F9093030177
S1130210909104019F5F90930401909109019F5F65
S113022090930901909106019F5F909306018FEAD4
S11302300E94960088810E94960084E70E948300B1
S1130240812F0E94960084E70E948300809102011E
S11302500E94960084E70E948300809105010E9419
S1130260960084E70E948300809107010E94960013
S113027084E70E948300809103010E94960084E732
S11302800E948300809104010E94960084E70E94EA
S11302908300809109010E94960084E70E948300F4
S11302A0809106010E94960084E70E9483008AE000
S11302B00E9483002FEF89EF90E02150804090400E
S10F02C0E1F700C0000052CFF894FFCF1B
S9030000FC
