S00C0000617439302E73726563DA
S11300000C944A000C9454000C9454000C94540026
S11300100C9454000C9454000C9454000C9454000C
S11300200C9454000C9454000C9454000C945400FC
S11300300C9454000C9454000C9454000C945400EC
S11300400C9454000C9454000C9454000C945400DC
S11300500C9454000C9454000C9454000C945400CC
S11300600C9454000C9454000C9454000C945400BC
S11300700C9454000C9454000C9454000C945400AC
S11300800C9454000C9454000C9454000C9454009C
S11300900C94540011241FBECFEFD8E0DEBFCDBFB7
S11300A00E9456000C9457000C940000FFCFF89463
S10500B0FFCF7C
S9030000FC
